{
  "contractName": "CrowdFund",
  "abi": [
    {
      "constant": true,
      "inputs": [],
      "name": "seller",
      "outputs": [
        {
          "name": "",
          "type": "address"
        }
      ],
      "payable": false,
      "stateMutability": "view",
      "type": "function",
      "signature": "0x08551a53"
    },
    {
      "constant": true,
      "inputs": [],
      "name": "buyer",
      "outputs": [
        {
          "name": "",
          "type": "address"
        }
      ],
      "payable": false,
      "stateMutability": "view",
      "type": "function",
      "signature": "0x7150d8ae"
    },
    {
      "constant": true,
      "inputs": [],
      "name": "escrow",
      "outputs": [
        {
          "name": "",
          "type": "address"
        }
      ],
      "payable": false,
      "stateMutability": "view",
      "type": "function",
      "signature": "0xe2fdcc17"
    },
    {
      "inputs": [
        {
          "name": "buyer_address",
          "type": "address"
        },
        {
          "name": "seller_address",
          "type": "address"
        }
      ],
      "payable": false,
      "stateMutability": "nonpayable",
      "type": "constructor",
      "signature": "constructor"
    },
    {
      "constant": false,
      "inputs": [],
      "name": "accept",
      "outputs": [],
      "payable": false,
      "stateMutability": "nonpayable",
      "type": "function",
      "signature": "0x2852b71c"
    },
    {
      "constant": false,
      "inputs": [
        {
          "name": "sellerAmount",
          "type": "uint256"
        }
      ],
      "name": "deposit",
      "outputs": [],
      "payable": true,
      "stateMutability": "payable",
      "type": "function",
      "signature": "0xb6b55f25"
    },
    {
      "constant": false,
      "inputs": [],
      "name": "cancel",
      "outputs": [],
      "payable": false,
      "stateMutability": "nonpayable",
      "type": "function",
      "signature": "0xea8a1af0"
    }
  ],
  "bytecode": "0x608060405234801561001057600080fd5b506040516040806107c08339810180604052604081101561003057600080fd5b81019080805190602001909291908051906020019092919050505081600160006101000a81548173ffffffffffffffffffffffffffffffffffffffff021916908373ffffffffffffffffffffffffffffffffffffffff16021790555080600260006101000a81548173ffffffffffffffffffffffffffffffffffffffff021916908373ffffffffffffffffffffffffffffffffffffffff16021790555033600360006101000a81548173ffffffffffffffffffffffffffffffffffffffff021916908373ffffffffffffffffffffffffffffffffffffffff16021790555042600481905550505061069a806101266000396000f3fe608060405260043610610078576000357c0100000000000000000000000000000000000000000000000000000000900463ffffffff16806308551a531461007d5780632852b71c146100d45780637150d8ae146100eb578063b6b55f2514610142578063e2fdcc1714610170578063ea8a1af0146101c7575b600080fd5b34801561008957600080fd5b506100926101de565b604051808273ffffffffffffffffffffffffffffffffffffffff1673ffffffffffffffffffffffffffffffffffffffff16815260200191505060405180910390f35b3480156100e057600080fd5b506100e9610204565b005b3480156100f757600080fd5b50610100610357565b604051808273ffffffffffffffffffffffffffffffffffffffff1673ffffffffffffffffffffffffffffffffffffffff16815260200191505060405180910390f35b61016e6004803603602081101561015857600080fd5b810190808035906020019092919050505061037d565b005b34801561017c57600080fd5b506101856104b9565b604051808273ffffffffffffffffffffffffffffffffffffffff1673ffffffffffffffffffffffffffffffffffffffff16815260200191505060405180910390f35b3480156101d357600080fd5b506101dc6104df565b005b600260009054906101000a900473ffffffffffffffffffffffffffffffffffffffff1681565b600160009054906101000a900473ffffffffffffffffffffffffffffffffffffffff1673ffffffffffffffffffffffffffffffffffffffff163373ffffffffffffffffffffffffffffffffffffffff16141561027a576001600560006101000a81548160ff0219169083151502179055506102ed565b600260009054906101000a900473ffffffffffffffffffffffffffffffffffffffff1673ffffffffffffffffffffffffffffffffffffffff163373ffffffffffffffffffffffffffffffffffffffff1614156102ec576001600560016101000a81548160ff0219169083151502179055505b5b600560009054906101000a900460ff1680156103155750600560019054906101000a900460ff165b1561035557600260009054906101000a900473ffffffffffffffffffffffffffffffffffffffff1673ffffffffffffffffffffffffffffffffffffffff16ff5b565b600160009054906101000a900473ffffffffffffffffffffffffffffffffffffffff1681565b600160009054906101000a900473ffffffffffffffffffffffffffffffffffffffff1673ffffffffffffffffffffffffffffffffffffffff163373ffffffffffffffffffffffffffffffffffffffff161415156103d957600080fd5b80341415156103e757600080fd5b600160009054906101000a900473ffffffffffffffffffffffffffffffffffffffff1673ffffffffffffffffffffffffffffffffffffffff163373ffffffffffffffffffffffffffffffffffffffff1614156104b657346000808282540192505081905550600360009054906101000a900473ffffffffffffffffffffffffffffffffffffffff1673ffffffffffffffffffffffffffffffffffffffff166108fc349081150290604051600060405180830381858888f193505050501580156104b4573d6000803e3d6000fd5b505b50565b600360009054906101000a900473ffffffffffffffffffffffffffffffffffffffff1681565b600160009054906101000a900473ffffffffffffffffffffffffffffffffffffffff1673ffffffffffffffffffffffffffffffffffffffff163373ffffffffffffffffffffffffffffffffffffffff161415610555576000600560006101000a81548160ff021916908315150217905550610602565b600260009054906101000a900473ffffffffffffffffffffffffffffffffffffffff1673ffffffffffffffffffffffffffffffffffffffff163373ffffffffffffffffffffffffffffffffffffffff161415610601576000600560016101000a81548160ff021916908315150217905550600160009054906101000a900473ffffffffffffffffffffffffffffffffffffffff1673ffffffffffffffffffffffffffffffffffffffff16ff5b5b600560009054906101000a900460ff1615801561062c5750600560019054906101000a900460ff16155b1561066c57600160009054906101000a900473ffffffffffffffffffffffffffffffffffffffff1673ffffffffffffffffffffffffffffffffffffffff16ff5b56fea165627a7a7230582041706ab634b3041dd0a94e4ebfa91d64031390b20da655f260bb5e3fc259cb040029",
  "source": "pragma solidity ^0.5.0;\r\ncontract CrowdFund {\r\n    uint balance;\r\n    address payable public buyer;\r\n    address payable public seller;\r\n    address payable public escrow;\r\n    uint private start;\r\n    bool buyerOk;\r\n    bool sellerOk;\r\n    constructor(address payable buyer_address, address payable seller_address) public {\r\n        // this is the constructor function that runs ONCE upon initialization\r\n        buyer = buyer_address;\r\n        seller = seller_address;\r\n        escrow = msg.sender;\r\n        start = now; //now is an alias for block.timestamp, not really \"now\"\r\n    }\r\n    \r\n    function accept() public {\r\n        if (msg.sender == buyer){\r\n            buyerOk = true;\r\n        } else if (msg.sender == seller){\r\n            sellerOk = true;\r\n        }\r\n        if (buyerOk && sellerOk){\r\n            selfdestruct(seller);\r\n            //payBalance();\r\n        } /*else if (buyerOk && !sellerOk ) {\r\n            // Freeze 30 days before release to buyer. The customer has to remember to call this method after freeze period.\r\n            selfdestruct(buyer);\r\n        }*/\r\n    }\r\n    \r\n    /*function payBalance() private {\r\n        // we are sending ourselves (contract creator) a fee\r\n        //escrow.transfer((address(this).balance / 100));\r\n        // send seller the balance\r\n        \r\n        /*\r\n        if (seller.send(address(this).balance)) {\r\n            balance = 0;\r\n            selfdestruct()\r\n        } else {\r\n            assert(false);\r\n        }\r\n    }*/\r\n    \r\n    function deposit(uint sellerAmount) public payable {\r\n        require(msg.sender==buyer);\r\n        require(msg.value==sellerAmount);\r\n        if (msg.sender == buyer) {\r\n            balance += msg.value;\r\n            escrow.transfer(msg.value);\r\n            //todo : to check if balance equals to the seller amount\r\n        }\r\n    }\r\n    \r\n    function cancel() public {\r\n        if (msg.sender == buyer){\r\n            buyerOk = false;\r\n        } else if (msg.sender == seller){\r\n            sellerOk = false;\r\n            selfdestruct(buyer);\r\n        }\r\n        // if both buyer and seller would like to cancel, money is returned to buyer \r\n        if (!buyerOk && !sellerOk){\r\n            selfdestruct(buyer);\r\n        }\r\n    }\r\n    \r\n    /*function kill() public {\r\n        require(msg.sender==escrow);\r\n        /*if (msg.sender == escrow) {\r\n            selfdestruct(buyer);\r\n        }\r\n    }*/\r\n\r\n}",
  "sourcePath": "C:/Users/Vinayak/Documents/blockchainProject/kj_hackit/contracts/CrowdFund.sol",
  "compiler": {
    "name": "solc",
    "version": "0.5.0+commit.1d4f565a.Emscripten.clang"
  },
  "schemaVersion": "3.0.1",
  "updatedAt": "2019-02-02T17:04:41.347Z",
  "devdoc": {
    "methods": {}
  },
  "userdoc": {
    "methods": {}
  }
}